:020000040800F2
:10000000C007002029020008030E00087D0D00082B
:10001000010E000883040008B10E00080000000073
:10002000000000000000000000000000070E0008B3
:10003000F504000800000000050E0008090E000885
:10004000430200084302000843020008430200087C
:10005000430200084302000843020008430200086C
:10006000430200084302000843020008430200085C
:10007000430200084302000843020008430200084C
:10008000430200084302000843020008430200083C
:10009000430200084302000843020008430200082C
:1000A000430200084302000843020008430200081C
:1000B000430200084302000843020008430200080C
:1000C00043020008430200084302000843020008FC
:1000D00043020008430200084302000843020008EC
:1000E00043020008430200084302000843020008DC
:1000F00043020008430200084302000843020008CC
:1001000043020008430200084302000843020008BB
:1001100043020008430200084302000843020008AB
:10012000430200084302000843020008430200089B
:10013000430200084302000843020008430200088B
:10014000430200084302000843020008430200087B
:10015000430200084302000843020008430200086B
:10016000430200084302000843020008430200085B
:100170004302000843020008430200080000000098
:10018000430200084302000800F002F800F03CF8C7
:100190000AA090E8000C82448344AAF10107DA45E2
:1001A00001D100F031F8AFF2090EBAE80F0013F0F8
:1001B000010F18BFFB1A43F0010318471418000081
:1001C00034180000103A24BF78C878C1FAD8520712
:1001D00024BF30C830C144BF04680C6070470000C1
:1001E0000023002400250026103A28BF78C1FBD840
:1001F000520728BF30C148BF0B6070471FB501F0E0
:10020000D9FB1FBD10B510BD00F001F91146FFF775
:10021000F5FF00F05FFE00F01FF903B4FFF7F2FFF7
:1002200003BC00F027F9000009488047094800474F
:10023000FEE7FEE7FEE7FEE7FEE7FEE7FEE7FEE796
:10024000FEE7FEE704480549054A064B70470000F3
:10025000A10E000889010008C0010020C00700208D
:10026000C0030020C003002053EA020C00F06980A4
:100270002DE9F04B4FF00006002B1FBFB3FA83F5BA
:1002800003FA05F424FA05F65E4012BF1643B2FAEB
:1002900082F502FA05F4C5F120051EBF22FA05FC1D
:1002A00044EA0C04203556EA044C4FEA144418BFC3
:1002B000641C4FF000084FF00009904271EB030CF2
:1002C00039D3002919BFB1FA81F701FA07F6B0FA5C
:1002D00080F700FA07F6C7F120071EBF20FA07FCD7
:1002E00046EA0C062037B6FBF4FCA7EB0507103FE7
:1002F00007F01F0BCBF120060CFA0BFB2CFA06F6CD
:1003000044BFB3460026202FA4BF5E464FF0000B2B
:100310005BEA060C08BF4FF0010B19EB0B09ABFBB6
:10032000027C48EB0608C01B06FB02CC0BFB03CC8F
:1003300071EB0C01C1E70B46024641464846BDE859
:10034000F08B13B54FF000004FF00001AFF30080C9
:10035000BDE81C40704710B5203AC0F00B80B1E8F2
:100360001850203AA0E81850B1E81850A0E81850EA
:10037000BFF4F5AF5FEA027C24BFB1E81850A0E8F3
:10038000185044BF18C918C0BDE810405FEA827C0D
:1003900024BF51F8043B40F8043B08BF7047D20724
:1003A00028BF31F8023B48BF11F8012B28BF20F8C5
:1003B000023B48BF00F8012B70474FF0000200B528
:1003C000134694469646203922BFA0E80C50A0E878
:1003D0000C50B1F12001BFF4F7AF090728BFA0E826
:1003E0000C5048BF0CC05DF804EB890028BF40F8F2
:1003F000042B08BF704748BF20F8022B11F0804F34
:1004000018BF00F8012B704770477047704775465A
:1004100000F02CF8AE4605006946534620F0070070
:10042000854618B020B5FFF70DFFBDE820404FF01E
:1004300000064FF000074FF000084FF0000B21F0CE
:100440000701AC46ACE8C009ACE8C009ACE8C0099B
:10045000ACE8C0098D46704710B50446AFF3008084
:100460002046BDE81040FFF7D8BE000000487047A6
:100470006001002001491820ABBEFEE72600020003
:100480007047FEE70E48016821F080710160016845
:1004900041F0807101600B48016821F001010160A9
:1004A000016841F0010101600021416000BF00BF0F
:1004B00000BF406808B1002070470120704700006D
:1004C000FCED00E0001000E031B5084C656800F07C
:1004D00053FA0749B0FBF1F000994143081A009123
:1004E0006168491B8142FBD338BD0000001000E069
:1004F00040420F007047000070B5044600F010F94C
:100500000546601C02D004480078044400F008F955
:10051000401BA042FAD370BD380000202DE9F84FEF
:10052000DFF8BCA10022012503264FF00F090AF1D4
:10053000040BAAF1040E00BF0B6805FA02F4234075
:10054000A34270D10F7907F00307012F01D0022FCA
:1005500016D187684FEA420806FA08FC27EA0C071A
:10056000D1F80CC00CFA08FC4CEA070CC0F808C023
:100570004768A7430C79C4F3001494403C4344609B
:100580000C79E443A4070AD0C4684FEA420C06FA87
:100590000CF7BC438F6807FA0CF72743C7600C7948
:1005A00004F00304022C12D1D40800EB840CDCF814
:1005B00020405707FF0E09FA07F824EA0804D1F88B
:1005C000108008FA07F848EA0408CCF8208004688C
:1005D0004FEA420C06FA0CF7BC430F7907F0030709
:1005E00007FA0CF7274307604C6814F4403F70D0BB
:1005F0003C4C276847F480472760246822F00307B3
:1006000004F480440094384C07EB040CDCF80848F0
:1006100097074FEA177809FA08F7BC43334FB842F7
:1006200002D1002724E054E0314FB84201D1012724
:100630001EE0304FB84201D1022719E02E4FB842D8
:1006400001D1032714E02D4FB84201D104270FE058
:100650002B4FB84201D105270AE02A4FB84201D1F9
:10066000062705E0284FB84201D1072700E00827F8
:1006700007FA08F72743CCF80878DAF8004057461D
:10068000D1F804C09C435FEACC2C00D51C433C60ED
:10069000DBF800405F46D1F804C09C435FEA8C2C35
:1006A00000D51C433C60DEF800407746D1F804C01A
:1006B0009C435FEA8C3C00D51C433C60084F083FDC
:1006C0003C68D1F804C09C435FEACC3C00D51C4395
:1006D0003C60521C102AFFF42FAFBDE8F88F0000D9
:1006E000083C014044380240003001400000024014
:1006F0000004024000080240000C024000100240CA
:100700000014024000180240001C0240006908402A
:1007100000D0012070470AB1816170470904FBE7EE
:100720000148806870470000380000200248816856
:100730000278114481607047380000200B4810B5E2
:10074000016841F400710160016841F48061016059
:10075000016841F480710160032000F061F80F200E
:1007600000F006F800F024F8002010BD003C024024
:1007700070B50D4D04464FF47A712878B1FBF0F056
:100780000A490968B1FBF0F000F0E4FA48B9102C0E
:1007900007D200222146501E00F022F800206C6093
:1007A00070BD012070BD0000380000204400002012
:1007B0000A4808B5016841F480410160006800F40E
:1007C000804000900548001F016841F080510160A1
:1007D000006800F08050009008BD000044380240DE
:1007E000F0B40E4B1B680C46C3F30223C3F107059C
:1007F000042D00D90425191D072901D2002300E08A
:10080000DB1E012606FA05F1491E214099409E4053
:10081000761E16403143F0BC00F04BBB0CED00E0FF
:10082000064900F0070208684FF6FF03184040EA47
:100830000220034A10430860704700000CED00E0FE
:100840000000FA052DE9F0470E46050065D0DFF8F7
:100850001481D8F80000F7B200F00700B04207D2C8
:1008600088F80070D8F8000000F00700B04254D1BA
:1008700028683D4C810712D5400703D5206840F415
:10088000E05020602878000703D5206840F46040DD
:1008900020602068A96820F0F000084320602878D4
:1008A000C0072DD0304968680839012812D00228C5
:1008B00013D0032811D00968890700292DDA21688F
:1008C00021F0030101432160FFF72AFF814641F235
:1008D000883A0EE009688903EFE709688901ECE7C7
:1008E000FFF71EFFA0EB0901514502D90320BDE827
:1008F000F0872068696800F00C00B0EB810FEFD141
:10090000D8F80010404601F00701B14207D907703E
:10091000006800F00700B04201D00120E7E7287826
:10092000400705D52068E96820F4E05008432060BE
:100930002878000706D52068296920F4604040EA3D
:10094000C100206000F01EF82168084AC1F30311BD
:10095000515CC8400649086006480068FFF708FF78
:100960000020C4E7003C024008380240BE190008DD
:10097000440000203C00002001480068704700004F
:1009800044000020154810B5006810F00C0214480F
:1009900013D01449042A0FD0082A0ED10F4C241F5B
:1009A0002268236802F03F025B0207D52068C0F38B
:1009B0008810A0FB010106E0084610BD2168C1F3C4
:1009C0008811A1FB00010023FFF74EFC2168C1F351
:1009D0000141491C4900B0FBF1F010BD083802404C
:1009E0000024F40040787D012DE9F84F04006ED01A
:1009F0002078DFF84C93C007A9F104054AD009F12B
:100A000004000168C1F38101012908D00068C0F326
:100A1000810002280AD1D9F80000400206D52868D2
:100A2000800337D560680028E1D033E06068B0F516
:100A3000803F10D0B0F5A02F286810D020F480306F
:100A40002860286820F4802028606068A8B1FFF73B
:100A500067FE06460DE0286840F48030F4E740F475
:100A600080202860F7E700BFFFF75AFE801B64284C
:100A700073D828688003F7D50CE0FFF751FE0646CF
:100A800005E000BFFFF74CFE801B6428F0D8286803
:100A90008003F7D42078DFF8AC8280074FF0000A9B
:100AA0003ED5A748001D016811F00C0F08D0006862
:100AB000C0F3810002280BD1D9F80000400207D40E
:100AC0002868800716D5E068012800D112E033E1DC
:100AD000E068B8B10120C8F80000FFF721FE064623
:100AE00005E000BFFFF71CFE801B0228C0D8286865
:100AF0008007F7D52868216920F0F80040EAC10096
:100B000028600DE0C8F800A0FFF70AFE064604E0E2
:100B1000FFF706FE801B02281FD828688007F7D43D
:100B20002078000722D5864F87486169703771B1F8
:100B300001210160FFF7F4FD064604E0FFF7F0FD38
:100B4000801B022809D838688007F7D50EE0C0F866
:100B500000A0FFF7E5FD064605E082E0FFF7E0FDB7
:100B6000801B02287DD838688007F7D4207840079A
:100B700068D5DFF8CCB100270BF13C0BDBF80000A7
:100B8000C0000BD4DBF8001041F08051CBF800100E
:100B9000DBF80000012700F0805000906B4E3068B9
:100BA000C00510D4306840F480703060FFF7B8FDA5
:100BB000009005E0FFF7B4FD0099401A022850D8D4
:100BC0003068C005F6D55E4EA0686C3601280FD09F
:100BD0000528306810D020F001003060306820F027
:100BE00004003060A068B8B1FFF79AFD00900FE0F4
:100BF000306840F00100F4E740F004003060F7E7AF
:100C0000FFF78EFD0099411A41F28830814266D883
:100C100030688007F4D50EE0FFF782FD009007E012
:100C2000FFF77EFD0099411A41F28830814256D883
:100C300030688007F4D42FB1DBF8001021F0805128
:100C4000CBF80010A069C8B33D49091D0968C1F37C
:100C5000810102294AD00228504607D0C8F8600016
:100C600000E03CE0FFF75CFD04463BE04746C8F887
:100C70006000FFF755FD064605E000BFFFF750FD99
:100C8000801B02282BD828688001F7D4D4E90701FB
:100C90000843A16A2E4A490802EB0141626A41EA0F
:100CA0008211084394F82C1040EA0161C9F8001041
:100CB00001203866FFF734FD044606E03EE000BF41
:100CC000FFF72EFD001B022809D828688001F7D500
:100CD00034E000BFFFF724FD001B022802D90320E7
:100CE000BDE8F88F28688001F4D427E00128F7D008
:100CF000D9F80000E26900F4800191421CD1226A17
:100D000000F03F01914217D147F6C071626A01407D
:100D1000B1EB821F10D1A26A4FF0FF3300F44031D3
:100D200003EB5202B1EB024F06D194F82C1000F005
:100D30007060B0EB016F01D00120D1E70020CFE758
:100D40000438024000004742800E474200700040D5
:100D50000000FFFF10B5401EB0F1807F01D30120DD
:100D600010BD4FF0E02460610F21601700F0A1F882
:100D70000020A06107202061002010BDFEE70000D8
:100D800070B586B014216846FFF717FB1A48002497
:100D9000016841F080010160016801F08001059166
:100DA000016841F001010160016801F00101059154
:100DB000016841F002010160016801F00201059142
:100DC000016841F01001016000680C4E00F0100055
:100DD0004FF400750590002229463046FFF79BFC32
:100DE00001200095CDE90104694630460394FFF7E0
:100DF00095FB06B070BD0000303802400004024090
:100E0000FEE7FEE770477047FFF790BC30B593B040
:100E100030216846FFF7D1FA14210CA8FFF7CDFA6C
:100E20001D480025016841F080510160006800F014
:100E3000805011901948016841F4804101600068B8
:100E4000022400F4804011900120039010200490AF
:100E5000009406940820CDE90750A820CDE90904A4
:100E600004200B906846FFF7BFFD08B172B6FEE79D
:100E70000CA90F2081E831004FF4A0500F904FF4DF
:100E80008050109005210CA8FFF7DCFC002801D051
:100E900072B6FEE713B030BD40380240007000402B
:100EA0000248016841F470010160704788ED00E07C
:100EB000FEE70907090E002804DB00F1E02080F8B6
:100EC0000014704700F00F0000F1E02080F8141DBE
:100ED0007047000088B0FFF731FCFFF797FFFFF77E
:100EE0004FFFFFF7CFFA444D42482021286005F11B
:100EF0002802A98041480123106093805032431595
:100F0000106093807832831510609380A03A10238C
:100F10001060938050320823106093802832384C40
:100F2000106002F110009180A0F158060790A038DF
:100F300005F1100900F1500B00F1280800F1780AC2
:100F400000F1C80706906420FFF7D6FA1822684619
:100F50000799FFF700FA06F148000FC800F052F8B1
:100F600084ED0A0B182249466846FFF7F4F995E824
:100F70000F0000F047F884ED000B18226846069930
:100F8000FFF7E9F905F128000FC800F03BF884ED00
:100F9000020B182259466846FFF7DDF905F1780083
:100FA0000FC800F02FF884ED060B18224146684662
:100FB000FFF7D1F905F150000FC800F023F884EDD8
:100FC000040B182251466846FFF7C5F906F12000C8
:100FD0000FC800F017F884ED080B18223946684650
:100FE000FFF7B9F906F170000FC800F00BF884EDB7
:100FF0000C0BA8E70010024048000020000402404B
:10100000000000200FB4002270B52DED028B86B0D9
:10101000BDF834500C982946FFF77DFB1421684633
:10102000FFF7CBF9012000240095CDE901040394DA
:1010300069460C98FFF772FA012229460C98FFF7CF
:101040006AFB0520FFF740FA002229460C98FFF7BB
:1010500062FB40F2EE20FFF737FA02200095CDE95F
:10106000014069460C98FFF759FA9FED288B44F22E
:10107000D17629460C98FFF749FB70B19DED0E0B18
:1010800053EC182B51EC100B00F058FA12D12046FB
:1010900000F090FACDE90E010CE029460C98FFF71C
:1010A00035FB38B9732C05DD204600F083FACDE915
:1010B000100105E00120FFF707FA641CB442D8DBF9
:1010C0009DED0E0B9DED101B53EC102B51EC110BF5
:1010D00000F086FB9FED0F1B53EC112B00F0D6F8B0
:1010E0009FED0E1B53EC112B00F07CFA41EC180B1A
:1010F000C820FFF7E9F906B0B0EE480AF0EE680A3A
:10110000BDEC028B70BC5DF814FB00000000000019
:10111000000000000000000000004D400000000042
:101120000000E03F10B591EA030F48BF83F0004391
:1011300000F15E83841A71EB030C05D2121943EBA4
:101140000C03001B61EB0C01DFF824E14FEA1154A2
:10115000A4EB135C1EEA430F18BF9EEA445F73D0F2
:1011600023EA0E03DCF1200E21EA045143F480133C
:1011700032D322FA0CFE10EB0E0023FA0CFE41EBE8
:101180000E01CCF1200E03FA0EFE10EB0E0051F111
:101190000001B1F5801FCCF1200E32D201EB0451D9
:1011A00012FA0EF2BDE8104058BF7047401C38BF1D
:1011B0005FEA420218BF7047002814BF20F0010008
:1011C00041F100014FEA410313F5001F38BF70479A
:1011D000A1F1C04100F0FEBA012A43EB0302ACF1D9
:1011E000200CDCF11F0E32BF4FF0000E23FA0CF37F
:1011F00010EB030041EB0451B4EB115FD0D0A1EB35
:10120000045101F5801149085FEA300001EB0451F7
:101210000ED350F1000038BF12FA0EFE08D1BDE81F
:101220001040C9E7401C38BF5FEA4202CAD1C3E799
:10123000BDE810404FEA410313F5001F38BF704767
:10124000A1F1C04100F0C6BA9EEA445F08D011EA9D
:101250005E0FBDE8104004BF01F000410020704760
:10126000BDE8104070B500F067FA00BF64FBBE3EF9
:101270000000E0FF491058BFC1F140415B1058BF6A
:10128000C3F140438B42EFF3008070472DE9C0412A
:1012900030B4DFF8A0C23CEA111418BF3CEA1314C2
:1012A00000F0EC8081EA03051CEA111444EAD574CD
:1012B00018BF1CEA131500F0C780A4EB05044FF01B
:1012C000004545EAC12145EAC32341EA505143EABA
:1012D000525304F17F74994204F500344FEAC02060
:1012E0004FEAC22208BF904200F09C804FEA13658B
:1012F0000FF24016765D4FEA134506FB05F7C7F17E
:10130000807706FB07F74FEAD737A7FB03687642DB
:10131000C8F58038A7FB06CE38BFA8F1010807FB47
:1013200008E64FF0000EA6FB028CE6FB03CEDCF1D4
:10133000000CCEF1004E38BFAEF1010EA6FB0C58EA
:101340004FF000074FF00005E6FB0E87A1FB08C633
:10135000A0FB07CE16EB0E0645F10005E1FB076585
:1013600015F1E04E7EBFA4F580345FEA46066D417C
:1013700016F1800745F100054FEA17274FEA066688
:1013800047EA0567A6F1DE46B6F1805F4FEA15250C
:101390001FD9384624F0010C05EBC471BCF1FE6F77
:1013A00001EB0C1102D8F0BCBDE8008124425CBF07
:1013B00001F5801E9EEAC47F02D4F0BCBDE8008126
:1013C000244238D4F0BCA1F1C041BDE8004100F096
:1013D00001BA4FEAD22242EA43524FEAD323A7FB93
:1013E00002864FEAD02040EA415007FB03661EEA1E
:1013F0000E0F4FEAD12105FB026658BFA6EB00563F
:10140000B6EB00564FEA520E4EEAC37E18EB0E0EB4
:1014100056EB530EBDD518EB02085E417F1C55F10B
:101420000005B6E74FF480154FF000074FF00006B7
:101430004FF00008ADE7F0BC4FF0000001F1C041F3
:1014400001F00041BDE8008111EA0C1F0CEA131500
:1014500000D00CE013EA0C1F00F025804FF00000D4
:10146000F0BC81EA030101F00041BDE80081F0BC5D
:10147000BDE8004181EA030100F0ACB9F0BCBDE871
:10148000004170B500F058F9097EFC3E00F007B845
:1014900081EA03014FF0000001F00041704781EA4A
:1014A000030100F097B9F0BCBDE800414FF0000027
:1014B00021497047FFFDFBF9F7F5F4F2F0EEEDEB93
:1014C000E9E8E6E4E3E1E0DEDDDBDAD8D7D5D4D342
:1014D000D1D0CFCDCCCBCAC8C7C6C5C4C2C1C0BF8E
:1014E000BEBDBCBBBAB9B8B7B6B5B4B3B2B1B0AF94
:1014F000AEADACABAAA9A8A8A7A6A5A4A3A3A2A178
:10150000A09F9F9E9D9C9C9B9A9999989797969532
:1015100095949393929191908F8F8E8E8D8C8C8BCE
:101520008B8A898988888787868585848483838256
:10153000828181800000FF070000F87F51EA030CE0
:1015400017D41CF5801F58BFBCF5801F00F1068022
:10155000994218BF704708BF9042704707D711F5EE
:10156000801F58BF13F5801F19D4994270478942D4
:1015700070471CF5801F08D5BCF5801FF7D58B423E
:1015800018BF704708BF824270474FF4001C1CEB25
:10159000410F38BF1CEB430F01D28B42704770B52F
:1015A00000F0CAF8922449004FF000514FF08053E8
:1015B000FFF760BE10F0004248BF4042B0FA80F32F
:1015C00010FA03F10AD0C3F11D0303F580634FEA5B
:1015D000415002EB035202EBD12170474FF0000063
:1015E00070470000DFF848C170B51CEA111E1EBF2D
:1015F0001CEA13159EEA0C0F95EA0C0F00F06F80A1
:1016000081EA030423EA4C134EEAD47E21EA4C110A
:1016100041F4801143F48013AE44A1FB024CA0FBC3
:101620000365AEF17F7E361955EB0C05A1FB034C2B
:101630004CF10003A0FB021C16EB0C06654153F1B4
:101640000003094218BF46F0010613F4007F0BD1D6
:101650004FEA03314FEA0530340341EA155140EABD
:1016600016506FF003020AE04FEAC3214FEAC5208B
:10167000F40241EA555140EA56506FF0020202EB83
:101680002E4201EB025585EACE710AD05FEA440C86
:1016900018BF24F0004450F1000041F1000120EA9D
:1016A000D47040F2FE7C624500D270BDA84214BFE7
:1016B0004FF080444FF04044002E08BF0024BEF19C
:1016C000806FA8BFA1F1C041BDE8704080F2828068
:1016D0004FF0000001F1C04101F0004170479EEA67
:1016E0000C0F0CEA131518BF95EA0C0F06D04FF03B
:1016F000000081EA030E0EF0004170BD00F01CF8FE
:101700008900013E00F007B800F009B84FEA430C29
:101710005FEA5C5C08D081EA030100F05BB84FEA45
:10172000410C5FEA5C5CF6D14FF000000149704764
:101730000000FF070000F87F0EF1020E2EF0030EEE
:101740005EF8046B364205D4012A43EB030515F518
:10175000001F12D8012841EB010C1CF5001F0CD80A
:101760000ED14FEAD17C15F5001F0CEB4C0C0CF19F
:10177000020C08BF4CEBD37C04E04FF0080C01E0F6
:101780004FEAD37C0CEB4C0526FA05F606F007066B
:10179000B6F1040C06D20EEB860CBDE870404CF09E
:1017A000010C6047DFE80CF0090B02024FF000412A
:1017B0004FF00000A1F5002170BD19461046012828
:1017C00051EB010418BFD4F5001484BF002001F0D0
:1017D000004170BD0808A0F500114FEA31017047C3
:1017E00010B591EA030F48BF83F000433FF5A2AC68
:1017F000841A71EB030C07D212198CF0004C43EBE6
:101800000C03001B61EB0C01DFF8A4E14FEA11545B
:10181000A4EB135C1EEA430F18BF9EEA445F00F07E
:10182000B08023EA6E03524221EA0451C3EB6E03F7
:1018300038BF5B1EDCF1200E25D322FA0CFE10EB24
:101840000E0043FA0CFE41EB0E01CCF1200E03FA20
:101850000EFE10EB0E0051F10001CCF1200E29D448
:1018600012FA0EF201EB0451BDE8104058BF704768
:10187000401C1CBFB2F1004F704700280CBF491C30
:1018800020F00100704712EB020E43EB030218BF79
:101890004FF0010E4EEA4202ACF1200CDCF11E0EBC
:1018A00054D943FA0CFE10EB0E0051F1FF31CCF18C
:1018B0001E0ED5D50EF1010E12FA0EFE404141EB7F
:1018C000010101EB445C5FEA5C5C10D910EBDE7057
:1018D00001EB045138BFBEF1004FBDE8104018BF06
:1018E000704700280CBF491C20F00100704730D21F
:1018F0004FEAD42C11F5001124F400641BD0B1FA86
:1019000081F20B3AA41AA41ED2F12003914030FABE
:1019100003F31943904001EBCC71002C01EB04510F
:10192000BDE81040A8BF704701F1C0414FF0000072
:1019300001F000417047B0FA80F310FA03F100D1D2
:1019400010BDE41A173C4805C90AE4E701EB04514D
:1019500010BD491001EB0451BDE810404FEA3000C2
:1019600002E04FF0000170474A0008BF0042F8D083
:10197000B2F5001F28BF704701F000414FF0000092
:1019800070479EEA445F07D011EA5E0FBDE8104041
:1019900004BF002100207047BDE8104070B5FFF77C
:1019A000CBFE00BF40DFF63E83F00041104670479B
:1019B0000000E0FF4FF04070E1EE100A70470000B9
:1019C00000000000000001020304060708090000EF
:1019D000F01900080000002048000000C4010008C1
:1019E000381A00084800002078070000E0010008CD
:1019F00000000000000000000000000000000000E7
:101A000000000000000000000000000000000000D6
:101A100000000000000000000000000000000000C6
:101A200000000000000000000100000010000000A5
:081A3000000000000024F40096
:040000050800018965
:00000001FF
